:020000040800F2
:10000000A86E01209D010008AD130108BDB40008D1
:1000100039130108D90F000835A1010800000000BC
:10002000000000000000000000000000856C0108D6
:100030000558000800000000594B0108BD8C01085C
:10004000B7010008B7010008B7010008B7010008B0
:10005000B7010008B7010008B7010008B7010008A0
:10006000B7010008B7010008B7010008A542000861
:10007000B7010008B5420008B7010008C5420008F2
:10008000B7010008B7010008B7010008B701000870
:10009000B7010008B7010008B7010008B701000860
:1000A000ED8D0108B7010008B7010008B70100088D
:1000B000FD8D0108B70100080D8E0108A1E50008BB
:1000C00091E50008B7010008B7010008B701000872
:1000D000B7010008ED9D0108019F0108119F01086B
:1000E000B7010008B7010008B7010008B701000810
:1000F000B7010008B7010008B7010008D5420008A1
:10010000B701000889580108B7010008B7010008C5
:1001100001960108B7010008B7010008B7010008FF
:10012000B7010008B7010008E5420008F5420008E1
:10013000B7010008B7010008B7010008B7010008BF
:10014000B7010008B7010008B7010008B7010008AF
:10015000B70100080543000815430008FD9F01088A
:10016000B7010008B7010008B7010008B70100088F
:10017000B7010008B7010008B7010008000000003F
:10018000B7010008B7010008DFF80CD000F0A4FBAD
:100190000048004789A30108A86E0120064880474F
:1001A00006480047FEE7FEE7FEE7FEE7FEE7FEE75C
:1001B000FEE7FEE7FEE7FEE7D98D010889010008AA
:1001C0002DE9F05F0546002092469B46884606468C
:1001D000814640241BE0284641464746224600F01F
:1001E000EEF853465A46C01A914110D311461846AC
:1001F000224600F0D5F82D1A67EB01084F4622463B
:100200000120002100F0CCF817EB00094E41201E20
:10021000A4F10104DFDC484631462A464346BDE8E6
:10022000F09F40EA01039B0703D009E008C9121FB1
:1002300008C0042AFAD203E011F8013B00F8013BA0
:10024000521EF9D27047D2B201E000F8012B491ECC
:10025000FBD270470022F6E710B513460A46044663
:100260001946FFF7F0FF204610BD421E12F8013F6D
:10027000002BFBD111F8013B02F8013B002BF9D117
:100280007047421C10F8011B0029FBD1801A7047EF
:1002900010B5002200E0521C835C8C5CA34201D1AB
:1002A000002BF8D1D8B2E1B2401A10BD034611F8C4
:1002B000012B00F8012B002AF9D11846704770B5C0
:1002C00006461AF00DFA046805460A220021304657
:1002D00000F0DAF82C6070BD70B5C1F30A5201F07D
:1002E00000450024C1F3130140F2FF3341F48011B3
:1002F0009A4201DA002070BD40F233439A42A2F2E2
:10030000334203DC524200F05AF800E090402C43A4
:10031000F1D0404270BD00F0004230F000400AD001
:10032000C10D01F56071C0F3160042EA0151C20827
:1003300040071143704700200146704701F0004319
:1003400030B421F0004150EA010206D00A0DA2F5B6
:100350006072C1F31301002A02DC30BC0020704738
:10036000440F44EAC104C100E01830BC00EBC250A5
:1003700000F0C2B830B50B4601460020202201240F
:1003800009E021FA02F59D4205D303FA02F5491B63
:1003900004FA02F52844151EA2F10102F1DC30BD79
:1003A000202A04DB203A00FA02F100207047914035
:1003B000C2F1200320FA03F3194390407047202A2A
:1003C00004DB203A21FA02F00021704721FA02F3FF
:1003D000D040C2F120029140084319467047000006
:1003E0000FB40B0010B58AB00FA900910E994FF011
:1003F0000004234ACC60214CCDE9064200D00423FE
:100400006FF00042CDE901321E4A089202466B4667
:10041000002000F027FB0AB010BC5DF814FBF0B51B
:1004200085B007464FF0FF300091CDE901011E462F
:10043000002015460C4604903B466A46314604A807
:10044000FFF7CEFF04990346601825B109B10246B3
:1004500000E022462A6000290ED0002B02DD009920
:10046000814209D00094001BCDE901043B466A4655
:10047000314604A8FFF7B4FF05B0F0BD9D0C00089D
:10048000BB0C0008290900082DE9F04791460F46EA
:1004900080460446002614F8015B2DB100F040FAB6
:1004A0000068405DC007F6D12B2D02D02D2D18D04D
:1004B000641E4A463946204600F010FC27B13968D0
:1004C000A14201D1C7F8008071054FF002040BD59D
:1004D0004042002803DD1AF003F90460A007BDE8DC
:1004E000F08746F48066E4E70028F8DA1AF0F8F8B6
:1004F00004606FF00040F2E70029A8BF7047401C7D
:10050000490008BF20F00100704710B4B0FA80FC29
:1005100000FA0CF050EA010404BF10BC704749B166
:10052000CCF1200421FA04F411FA0CF118BF0121D6
:1005300021430843A3EB0C01CB1D4FEA00614FEAB6
:10054000102042BF002010BC704700EBC350104485
:100550000029A4BF10BC7047401C490008BF20F010
:10056000010010BC70472DE9FE4F804681EA030070
:10057000C00F0C46009021F0004123F00045B8EB7D
:100580000200A94105D24046214690461C460B4632
:10059000024623F00040104347D0270DC7F30A005E
:1005A000C3F30A510290401A019040286BDAC3F35A
:1005B000130040F4801B0098924620B10023D2EB38
:1005C000030A63EB0B0B01985946C0F140025046F9
:1005D000FFF7E6FE06460D4650465946019A00F0E2
:1005E0008DF910EB08006141002487EA115284EA7A
:1005F000E7731A4340D0009A62B3019A012A4FEA86
:10060000075215DC001B61EB02014FF0004202EAC9
:100610000752CDE90042001C41F5801132462B46BD
:1006200000F0BAFB03B0BDE8F08F40462146F9E781
:10063000001B61EB0201001C41F5801300185B41B7
:100640002018A2F5001747EB030140EAD570B61950
:100650006D4111E06D084FEA360645EAC0754FEA74
:100660000752001B61EB0201001C41F58011490893
:100670004FEA30000019514132462B4603B0BDE825
:10068000F04F00F07ABB0098012240000023D0EB2D
:10069000020263EBE073009821464FEAE074B8EB86
:1006A000000061EB0401E9E783F000435BE781F0C0
:1006B000004158E72DE9FE4F81EA030404F00044AD
:1006C00021F0004100944FF0000B23F0004350EA6A
:1006D00001045ED052EA03045BD0C3F30A54C1F3B1
:1006E0000A552C44A4F2F3340194A0FB0254C1F344
:1006F000130141F48011C3F3130343F4801301FB8E
:10070000024400FB034E840A970A44EA815447EAF4
:100710008357A4FB076802958D0A05FB07854FEAFE
:10072000932C04FB0C542705029D4FEA065847EA18
:100730001637B5EB08056EEB070C870E920E47EAED
:10074000811742EA8312A7FB0201B6EB0B0164EBAF
:1007500000042B0D43EA0C335E1844EB1C50DA46C0
:100760005146E7FB0201C5F313044FEA0B3343EA9A
:1007700014534FEA0432019C43EA0603A4F10C042B
:100780000294009CCDE900B400F006FB03B0BDE884
:10079000F08F00200146F9E72DE9F04D81EA0304CE
:1007A00004F0004B21F0004514464FF0000A23F0FE
:1007B000004150EA050220D054EA01021DD0C5F3E1
:1007C0000A570246C5F31303C1F31300C1F30A56D7
:1007D00040F4801543F48013A7EB0608101BD6469F
:1007E00008F2FD3873EB050002D308F1010801E0BF
:1007F00092185B41B8F1000F03DA00200146BDE812
:10080000F08D00204FF48011064684460EE0171B41
:1008100073EB050705D3121B63EB050306434CEA94
:10082000010C49084FEA300092185B4150EA010779
:10083000EDD152EA030012D082EA040083EA0501F6
:10084000084305D0101BAB4106D20122002306E06D
:1008500000224FF0004302E06FF0010253101AEB48
:1008600006004CEB085110EB0A0041EB0B01BDE810
:10087000F04D00F082BAC1F30A52C1F3130140F205
:10088000FF3341F480119A4202DA0020014670479A
:1008900040F233439A42A2F2334202DC5242FFF763
:1008A0008EBDFFF77DBD000030B5041E71F1000460
:1008B00004DB4FF00044404264EB0101141E73F16D
:1008C000000405DB1C464FF00043524263EB040377
:1008D000994208BF904230BD064C074D06E0E068E3
:1008E00040F0010394E8070098471034AC42F6D377
:1008F000FFF74EFCA4D20108C4D20108202A06DB6F
:10090000CB17203A41FA02F043EAE07306E041FADD
:1009100002F3D040C2F120029140084319467047CB
:100920000048704780B0010810B50446FFF7F8FF93
:100930000068005D00F0010010BD00002DE9FF4FD0
:10094000087883B09946FF2805D0491C2D2804D08B
:100950000024002008E000200BE00124F9E700EB70
:10096000800003EB4000491C0B78FF2BF7D104B14A
:10097000404200230293147819461D462D2C01D0C5
:100980002B2C04D1521C2D2C13D000240294AA46E7
:100990001478FF2C0FD00A25A3FB057801FB0581F5
:1009A0004FF0000C03FB0C11521CE3194AEB010140
:1009B000EEE70124EAE7814453EA010002D019F589
:1009C000C87F06DA03980021C0E9001107B0BDE82E
:1009D000F08F0025AE4E2F46DFF8B882184600F0A3
:1009E00037FACDE90001B9F1000002DAC9F10004DB
:1009F00000E004460023A74A1AEB030B42EB045A1B
:100A000012E0E00707D02A46334638464146FFF752
:100A100051FE074688462A46334610461946FFF7D8
:100A200049FE05460E466410002CEAD1DDE90001BE
:100A3000B9F1000F5A46534606DAFFF7ADFE3A46C3
:100A40004346FFF7A9FE05E0FFF734FE3A4643466A
:100A5000FFF730FE029A0AB181F00041039AC2E921
:100A60000001B3E72DE9FF4F1F468DB0D7E90146DE
:100A70004FF0FF382E2045464FF000090B90B96922
:100A80006D1C0E988847396A824688470028F6D13F
:100A9000BAF1FF3F0AD024F4D064002E11DDBAF180
:100AA0002B0F08D0BAF12D0F0BD102E0404611B048
:100AB0008DE744F48064B9696D1C0E9888478246BE
:100AC000761E6946600501D52D2000E02B208DF8AB
:100AD000000001F1010B0DF1200809E0B9696D1C5E
:100AE0000E98884782460F9844F40074761E05607D
:100AF000002E02DDBAF1300FF0D00B998A453ED1BD
:100B000044F0800406E00F99681CA9F1010944F43F
:100B100000740860B9696D1C761E0E98884782467D
:100B20003028F0D02BE00B998A4505D1200603D45C
:100B300044F08004761E18E0504619F0BBFE08B35E
:100B40000DF11302761EAAF1300044F400749345AF
:100B500006D20BF8010B200607D5A9F1010003E02E
:100B6000200602D409F101008146A00502D50F99A3
:100B7000681C0860B9696D1C0E9888478246002E73
:100B8000D1DC53E0002E51DDBAF1650F02D0BAF18D
:100B9000450F4BD1A00549D5B9696D1C24F44074AB
:100BA000761E0E9888478246002E0CDD2B2804D036
:100BB000BAF12D0F07D144F48074B9696D1C0E98F9
:100BC00088478246761EE00501D52D2100E02B21C5
:100BD00008F8011BCDF82C8021E00DF12901761ECB
:100BE00044F4007488450CD2AAF1300010F0FF00E4
:100BF00088F8000002D10B99884509D908F101084D
:100C000006E0E00501D5244801E042F20F7081467C
:100C1000B9696D1C0E98884782460F980560002EB2
:100C200004DD504619F046FE0028D6D1F9690E9829
:100C30008847FF208BF8000088F80000002006900D
:100C400007904B466A4608A906A8FFF777FEA0055D
:100C500002D46FF001002AE714F0240F0AD0E00755
:100C600014D1DDE906123868031D3B600068C0E955
:100C700000120BE0DDE90601FFF760FB0146E0072B
:100C800004D13868021D3A600068016028460EE70A
:100C9000000014400000F03FF1D8FFFF426842B16D
:100CA000016811F8013B23B1521EC0E90012184639
:100CB00070470121C160881E704742685AB1C368FD
:100CC000016843B983688B4205D0491E521CC0E9B4
:100CD0000012002070474FF0FF3070472DE9F05FA1
:100CE00082460078002715468B460AF10104B94672
:100CF000302801D09DB113E014F8010B01277828AA
:100D000003D0582801D045B10AE00DB1102D07D10C
:100D10000027102514F8010B02E0082500E00A2541
:100D20000026B0460EE005FB080005FB06F1012792
:100D300001EB10461FFA80F8B6F5803F00D3B946A4
:100D400014F8010B294600F075F80028EBDABBF126
:100D5000000F05D00FB1641E00E05446CBF80040F0
:100D6000B9F1000F06D019F0BBFC02210160C81ECA
:100D7000BDE8F09F48EA0640FAE710B5141E73F18B
:100D8000000408DA401C41F1000192185B411A434B
:100D900001D120F0010010BD2DE9F04D92469B4697
:100DA00011B1B1FA81F202E0B0FA80F2203290463D
:100DB000FFF7F6FA04460F4640EA0A0041EA0B0143
:100DC00053465A46084313D0114653EA010019D03E
:100DD000C8F140025046FFF7F2FA05460E4650466B
:100DE00059464246FFF7DCFA084305D0012004E0EB
:100DF00020463946BDE8F08D0020054346EAE076FE
:100E00002C4337430A986305E40AA0EB080000224C
:100E1000FD0A44EA47540A3002D500200146E9E7BA
:100E2000010510196941DDE9084500196941BDE86E
:100E3000F04DA2E73A2800D2303820F02002412AB3
:100E400001D3A2F13700884201D34FF0FF30704741
:100E50000EB540F2334202920022CDE90022134641
:100E6000FFF79AFF03B000BD80B582B001218DF875
:100E7000071041F20000C4F2020005F0D5FC20B1D9
:100E8000FFE700208DF80700FFE79DF8070002B09C
:100E900080BD00007047000080B582B001900199CC
:100EA00046F6A430C2F2000007F0E2FC02B080BDBA
:100EB00080B546F6A430C2F2000007F0FFFC04380B
:100EC00018BF012080BD000080B582B000208DF8E1
:100ED000060000F02BF8012804D0FFE701208DF870
:100EE00007001FE046F6A430C2F2000007F0A4FE9F
:100EF0008DF806009DF8060078B9FFE746F6A430A5
:100F0000C2F200004FF4006107F0CAFA20B1FFE717
:100F100001208DF80600FFE7FFE79DF806008DF839
:100F20000700FFE79DF8070002B080BD80B582B0E2
:100F300001208DF80700FFF797FF20B9FFE7002099
:100F40008DF80700FFE79DF8070002B080BD0000A4
:100F500080B586B0059004910392029300208DF82D
:100F600007000599049A039B0298EC46CCF8000010
:100F700046F6A430C2F2000008F00CF820B1FFE7FA
:100F800001208DF80700FFE79DF8070006B080BD3F
:100F90007047000080B586B00590049103920293DB
:100FA00000208DF807000599049A039B0298EC46EF
:100FB000CCF8000046F6A430C2F2000008F0FEF9BA
:100FC00020B1FFE701208DF80700FFE79DF807003B
:100FD00006B080BD70470000FFE7FEE7B0B59CB0EB
:100FE0001A90199119980078012810D1FFE71999E2
:100FF0000220087040F28C01C2F20001012008704A
:1010000040F28801C2F2000100200870FFE740F2C0
:101010008C00C2F2000000780146189158B1FFE739
:101020001898012800F04386FFE71898022800F07E
:10103000098701F041B941F67071C2F2000142F630
:101040007042002088544BF61770C0F601006421EE
:1010500016F04EFC0078B0B3FFE741F67071C2F2B3
:101060000001149142F670431793C85C421CCA54A5
:1010700001F5AC621592C821169110FB01204CF2CB
:101080003C21C0F601014DF27712C0F601020023A7
:1010900017F01CFDDDF850C0159A1699DDF85CE0DC
:1010A0001CF80E00431C0CF80E3010FB01204CF213
:1010B000AA51C0F601014DF26912C0F601020123E6
:1010C00017F004FD35E041F67071C2F20001109195
:1010D00042F670431393C85C421CCA5401F5AC62DB
:1010E0001192C821129110FB01204CF23311C0F66D
:1010F00001014DF27712C0F60102002317F0E6FC61
:10110000DDF840C0119A1299DDF84CE01CF80E0091
:10111000431C0CF80E3010FB01204CF2AA51C0F613
:1011200001014DF2DD02C0F60102012317F0CEFCF1
:10113000FFE741F61000C4F2020000680006002834
:1011400003D4FFE7012018B91CE00120D0B9FFE764
:1011500041F67072C2F2000242F67043D05C411C4C
:10116000D154C82110FB012000F5AC604CF60D21D4
:10117000C0F601014CF66F52C0F60102012317F0D0
:10118000A5FC19E041F67072C2F2000242F670430B
:10119000D05C411CD154C82110FB012000F5AC608B
:1011A0004CF60D21C0F601014CF62462C0F6010296
:1011B000012317F08BFCFFE71A9842F67341405C5D
:1011C000012840F08C80FFE71A9942F67342002014
:1011D00088541A9800F5BC704CF62461C0F60101E1
:1011E000FFF756F840B9FFE741F61801C4F20201D3
:1011F0004FF40000086071E01A9800F5BC704CF6DE
:101200006F51C0F60101FFF743F838B9FFE741F627
:101210001801C4F20201802008605EE01A9890F87C
:1012200079014C2808D1FFE746F6B840C2F2000029
:101230000168552048634FE01A9890F879014D28CD
:1012400008D1FFE746F6B840C2F2000001685C2012
:10125000486340E01A9890F87901522808D1FFE7D6
:1012600046F6B840C2F2000001686720486331E0EA
:101270001A9890F87B01482812D1FFE74CF24400FD
:10128000C0F60100642116F033FB007838B9FFE79F
:1012900040F20401C2F2000100200870FFE718E0EC
:1012A0001A9890F87B01462812D1FFE74CF22810DB
:1012B000C0F60100642116F01BFB007838B9FFE787
:1012C00040F20401C2F2000101200870FFE7FFE7CD
:1012D000FFE7FFE7FFE7FFE7FFE7FFE7FFE74CF682
:1012E000F370C0F60100642116F002FB00780028BC
:1012F00069D1FFE741F67070C2F2000043F6262183
:1013000008440A2102F09EFF40F2A401C2F200014B
:10131000086040F20400C2F20000007880B9FFE7E4
:1013200040F2A400C2F20000026840F28D00C2F256
:1013300000004CF6BB71C0F6010119F0BDF928E0C0
:1013400040F20400C2F200000078012810D1FFE74B
:1013500040F2A400C2F20000026840F28D00C2F226
:1013600000004CF6A971C0F6010119F0A5F90FE0D3
:1013700040F2A400C2F20000026840F28D00C2F206
:1013800000004CF6C571C0F6010119F095F9FFE7B0
:10139000FFE741F67072C2F2000242F67043D05C81
:1013A000411CD154C82110FB012000F5AC604CF663
:1013B000D531C0F6010140F28D02C2F200020123D4
:1013C00017F084FB19E041F67072C2F2000242F697
:1013D0007043D05C411CD154C82110FB012000F5A2
:1013E000AC604CF6D531C0F601014CF23D02C0F6BE
:1013F0000102012317F06AFBFFE74CF60170C0F60B
:1014000001000A2116F074FA0078002869D1FFE77C
:1014100041F67070C2F2000043F6262108440A210A
:1014200002F010FF40F2A401C2F20001086040F295
:101430000400C2F20000007880B9FFE740F2A40087
:10144000C2F20000026840F28D00C2F200004CF6C9
:101450009771C0F6010119F02FF928E040F204005D
:10146000C2F200000078012810D1FFE740F2A4008A
:10147000C2F20000026840F28D00C2F200004CF699
:101480008571C0F6010119F017F90FE040F2A400D0
:10149000C2F20000026840F28D00C2F200004CF679
:1014A000A171C0F6010119F007F9FFE7FFE741F666
:1014B0007072C2F2000242F67043D05C411CD154FB
:1014C000C82110FB012000F5AC604CF22661C0F68B
:1014D000010140F28D02C2F20002012317F0F6FA78
:1014E00019E041F67072C2F2000242F67043D05C1D
:1014F000411CD154C82110FB012000F5AC604CF216
:101500002661C0F601014CF23602C0F60102012349
:1015100017F0DCFAFFE74CF63D70C0F601006421DD
:1015200016F0E6F90078002869D1FFE741F67070FF
:10153000C2F2000043F6262108440A2102F082FE8E
:1015400040F2A401C2F20001086040F20400C2F2BD
:101550000000007880B9FFE740F2A400C2F200006A
:10156000026840F28D00C2F200004CF67371C0F6C2
:10157000010119F0A1F828E040F20400C2F20000D5
:101580000078012810D1FFE740F2A400C2F2000069
:10159000026840F28D00C2F200004CF66171C0F6A4
:1015A000010119F089F80FE040F2A400C2F2000036
:1015B000026840F28D00C2F200004CF67D71C0F668
:1015C000010119F079F8FFE7FFE741F67072C2F206
:1015D000000242F67043D05C411CD154C82110FB7C
:1015E000012000F5AC604CF22871C0F6010140F218
:1015F0008D02C2F20002012317F068FA19E041F6E9
:101600007072C2F2000242F67043D05C411CD154A9
:10161000C82110FB012000F5AC604CF22871C0F627
:1016200001014CF22F02C0F60102012317F04EFA1D
:10163000FFE74BF65A50C0F60100642116F058F946
:101640000078002840F04681FFE741F67070C2F252
:1016500000000C9043F6262108440E900A210F91B9
:1016600002F0F0FD024640F28D00C2F200000D9043
:101670004CF65B71C0F6010119F01EF80C9B0D9A37
:1016800042F6704C13F80C00411C03F80C10C821F2
:1016900010FB013000F5AC604CF62A01C0F60101E8
:1016A000012317F013FA0E980F9902F0CBFD46F2C2
:1016B000D431C2F200012331FEF7EAFDD0B9FFE7D1
:1016C00041F67072C2F2000242F67043D05C411CD7
:1016D000D154C82110FB012000F5AC604CF262111E
:1016E000C0F601014DF27712C0F60102002317F097
:1016F000EDF919E041F67072C2F2000242F6704351
:10170000D05C411CD154C82110FB012000F5AC6015
:101710004CF26D21C0F601014DF27712C0F60102C4
:10172000002317F0D3F9FFE741F67070C2F2000012
:1017300043F6262108440A2102F084FD46F2D43102
:10174000C2F200015531FEF7A3FDD0B9FFE741F623
:101750007072C2F2000242F67043D05C411CD15458
:10176000C82110FB012000F5AC604CF27C11C0F6E2
:1017700001014DF27712C0F60102002317F0A6F91D
:1017800019E041F67072C2F2000242F67043D05C7A
:10179000411CD154C82110FB012000F5AC604CF273
:1017A0008821C0F601014DF27712C0F60102002334
:1017B00017F08CF9FFE741F67070C2F2000043F6B3
:1017C000262108440A2102F03DFD46F2D431C2F23E
:1017D00000018731FEF75CFDD0B9FFE741F670727A
:1017E000C2F2000242F67043D05C411CD154C821C1
:1017F00010FB012000F5AC604CF29611C0F601011F
:101800004DF27712C0F60102002317F05FF919E0DC
:1018100041F67072C2F2000242F67043D05C411C85
:10182000D154C82110FB012000F5AC604CF2A3217B
:10183000C0F601014DF27712C0F60102002317F045
:1018400045F9FFE741F67070C2F2000043F6262129
:1018500008440A2102F0F6FC46F2D431C2F200013B
:10186000B931FEF715FDD0B9FFE741F67072C2F24B
:10187000000242F67043D05C411CD154C82110FBD9
:10188000012000F5AC604CF2B011C0F601014DF240
:101890007712C0F60102002317F018F919E041F69B
:1018A0007072C2F2000242F67043D05C411CD15407
:1018B000C82110FB012000F5AC604CF2BE21C0F63F
:1018C00001014DF27712C0F60102002317F0FEF875
:1018D000FFE7FFE74CF6F740C0F60100642116F081
:1018E00007F8007828BBFFE741F67070C2F20000ED
:1018F00043F62621405C31281AD1FFE741F6707289
:10190000C2F2000242F67043D05C411CD154C8219F
:1019100010FB012000F5AC604CF2B901C0F60101EA
:101920004BF65852C0F60102012317F0CFF8FFE73B
:10193000FFE74CF6F740C0F60100642115F0D8FF30
:10194000007828BBFFE741F67070C2F2000043F652
:101950002621405C30281AD1FFE741F67072C2F2AE
:10196000000242F67043D05C411CD154C82110FBE8
:10197000012000F5AC604BF6B671C0F601014BF6E4
:101980005852C0F60102012317F0A0F8FFE7FFE765
:101990004CF6AB60C0F60100642115F0A9FF007899
:1019A00000283FD1FFE741F67070C2F2000043F615
:1019B0002621405C31281AD1FFE741F67072C2F24D
:1019C000000242F67043D05C411CD154C82110FB88
:1019D000012000F5AC604CF29B01C0F601014BF612
:1019E0005852C0F60102012317F070F819E041F6D1
:1019F0007072C2F2000242F67043D05C411CD154B6
:101A0000C82110FB012000F5AC604BF69871C0F6C0
:101A100001014BF65852C0F60102012317F056F8A7
:101A2000FFE7FFE74CF60B50C0F60100642115F00C
:101A30005FFF007800283FD1FFE741F67070C2F2E7
:101A4000000043F62621405C31281AD1FFE741F619
:101A50007072C2F2000242F67043D05C411CD15455
:101A6000C82110FB012000F5AC604CF25D01C0F60E
:101A700001014BF65852C0F60102012317F026F877
:101A800019E041F67072C2F2000242F67043D05C77
:101A9000411CD154C82110FB012000F5AC604BF66D
:101AA0005A71C0F601014BF65852C0F601020123EB
:101AB00017F00CF8FFE7FFE74CF67760C0F601007F
:101AC000642115F015FF007800283FD1FFE741F6AB
:101AD0007070C2F2000043F62621405C31281AD112
:101AE000FFE741F67072C2F2000242F67043D05C2A
:101AF000411CD154C82110FB012000F5AC604CF210
:101B00006D01C0F601014BF65852C0F601020123E7
:101B100016F0DCFF19E041F67072C2F2000242F6E4
:101B20007043D05C411CD154C82110FB012000F54A
:101B3000AC604BF66A71C0F601014BF65852C0F624
:101B40000102012316F0C2FFFFE7FFE74CF6A56094
:101B5000C0F60100642115F0CBFE007800283FD1CB
:101B6000FFE741F67070C2F2000043F62621405CA8
:101B700031281AD1FFE741F67072C2F2000242F634
:101B80007043D05C411CD154C82110FB012000F5EA
:101B9000AC604CF27D01C0F601014BF65852C0F624
:101BA0000102012316F092FF19E041F67072C2F2B1
:101BB000000242F67043D05C411CD154C82110FB96
:101BC000012000F5AC604BF67A71C0F601014BF6CE
:101BD0005852C0F60102012316F078FFFFE7FFE735
:101BE0004CF6A860C0F60100642115F081FE007873
:101BF00000283FD1FFE741F67070C2F2000043F6C3
:101C00002621405C31281AD1FFE741F67072C2F2FA
:101C1000000242F67043D05C411CD154C82110FB35
:101C2000012000F5AC604CF24D01C0F601014BF60D
:101C30005852C0F60102012316F048FF19E041F6A0
:101C40007072C2F2000242F67043D05C411CD15463
:101C5000C82110FB012000F5AC604BF64A71C0F6BC
:101C600001014BF65852C0F60102012316F02EFF77
:101C7000FFE7FFE741F20410C2F20000C068C92884
:101C800014D3FFE741F20411C2F200010020C86042
:101C900041F67070C2F2000042F67041425C00F5FD
:101CA000AC614FF47A7315F0F9F9FFE704E34DF2F4
:101CB0007710C0F6010002210B9100220A924FF426
:101CC0007A7308930FF036FD0A9841F67074C2F2E9
:101CD0000004069442F6704505956055605D411C10
:101CE000615504F5AC620792C821029110FB0120F6
:101CF0004BF6F071C0F601014BF65852C0F60102E6
:101D000003920123049316F0E1FE0299039A049BC7
:101D1000DDF81CC0605D00F1010E04F805E010FB69
:101D200001C04BF68A71C0F6010116F0CFFE029990
:101D3000039A049BDDF81CC0605D00F1010E04F8FD
:101D400005E010FB01C04BF6A871C0F6010116F0CA
:101D5000BDFE0299039A049BDDF81CC0605D00F192
:101D6000010E04F805E010FB01C04BF6C671C0F689
:101D7000010116F0ABFE0299039A049BDDF81CC02A
:101D8000605D00F1010E04F805E010FB01C04BF6A8
:101D9000D471C0F6010116F099FE0299039A049BD2
:101DA000DDF81CC0605D00F1010E04F805E010FBD9
:101DB00001C04BF6E271C0F6010116F087FE059AEC
:101DC00006980799089B825C15F068F90A9840F21A
:101DD0008801C2F2000108704BF61770C0F60100CE
:101DE000642115F085FD0A2009900FF0A7FA0899E3
:101DF0004CF6D570C0F6010015F07AFD0146099841
:101E0000097840F28B02C2F2000211700FF096FACC
:101E10000A990B9846F6B842C2F20002136855229E
:101E20005A6341F20412C2F20002D16040F28C0106
:101E3000C2F20001087041F61801C4F202018020CC
:101E4000086039E241F67071C2F2000142F6704258
:101E50000020885446F6B840C2F2000001686720AE
:101E600048634FF4FA700FF069FA4CF6F740C0F689
:101E70000100642115F03CFD0078A0B9FFE741F6B0
:101E80007070C2F2000043F62621405C302809D170
:101E9000FFE740F28801C2F20001087840F002003A
:101EA0000870FFE7FFE746F6B840C2F2000001689D
:101EB000552048634FF416700FF040FA4CF6F74087
:101EC000C0F60100642115F013FD0078A0B9FFE70A
:101ED00041F67070C2F2000043F62621405C3128C2
:101EE00009D1FFE740F28801C2F20001087840F012
:101EF00001000870FFE7FFE740F28800C2F200002F
:101F0000007803281AD1FFE741F67072C2F200028E
:101F100042F67043D05C411CD154C82110FB012013
:101F200000F5AC604CF2F301C0F601014BF65852DB
:101F3000C0F60102012316F0C9FD19E041F67072E6
:101F4000C2F2000242F67043D05C411CD154C82159
:101F500010FB012000F5AC604BF6F071C0F60101FA
:101F60004BF65852C0F60102012316F0AFFDFFE711
:101F70004CF6AB60C0F60100642115F0B9FC0078A6
:101F800070BBFFE741F67070C2F2000043F62621F5
:101F9000405C312822D1FFE740F28801C2F2000103
:101FA000087840F00400087041F67072C2F2000236
:101FB00042F67043D05C411CD154C82110FB012073
:101FC00000F5AC604CF28D01C0F601014BF65852A1
:101FD000C0F60102012316F079FD00E0FFE7FFE7FC
:101FE0004CF60B50C0F60100642115F081FC00781E
:101FF00070BBFFE741F67070C2F2000043F6262185
:10200000405C312822D1FFE740F28801C2F2000192
:10201000087840F00800087041F67072C2F20002C1
:1020200042F67043D05C411CD154C82110FB012002
:1020300000F5AC604CF2D701C0F601014BF65852E6
:10204000C0F60102012316F041FD00E0FFE7FFE7C3
:102050004CF67760C0F60100642115F049FC007869
:1020600070BBFFE741F67070C2F2000043F6262114
:10207000405C312822D1FFE740F28801C2F2000122
:10208000087840F01000087041F67072C2F2000249
:1020900042F67043D05C411CD154C82110FB012092
:1020A00000F5AC604CF2C901C0F601014BF6585284
:1020B000C0F60102012316F009FD00E0FFE7FFE78B
:1020C0004CF6A560C0F60100642115F011FC007803
:1020D00070BBFFE741F67070C2F2000043F62621A4
:1020E000405C312822D1FFE740F28801C2F20001B2
:1020F000087840F02000087041F67072C2F20002C9
:1021000042F67043D05C411CD154C82110FB012021
:1021100000F5AC604CF2AB01C0F601014BF6585231
:10212000C0F60102012316F0D1FC00E0FFE7FFE753
:102130004CF6A860C0F60100642115F0D9FB0078C8
:1021400070BBFFE741F67070C2F2000043F6262133
:10215000405C312822D1FFE740F28801C2F2000141
:10216000087840F04000087041F67072C2F2000238
:1021700042F67043D05C411CD154C82110FB0120B1
:1021800000F5AC604CF2E501C0F601014BF6585287
:10219000C0F60102012316F099FC00E0FFE7FFE71B
:1021A00041F67070C2F2000042F67041425C00F5E8
:1021B000AC614FF47A7314F071FF41F61801C4F268
:1021C00002014FF40000086046F6B840C2F2000079
:1021D00001685C20486319990020087040F28C0166
:1021E000C2F20001087040F28800C2F200000190C3
:1021F000027840F28D00C2F200004CF6BD61C0F6DC
:10220000010118F059FA4FF4FA700FF097F801989D
:1022100000787F2825D1FFE740F28D00C2F2000050
:10222000012100224FF47A730FF084FA007870B124
:10223000FFE703204FF47A710EF01EFF40F2890091
:10224000C2F200000121417001701B903CE040F29D
:102250008900C2F2000000214170012101701B9031
:1022600032E040F28D00C2F2000000224FF47A7397
:1022700011460FF05FFA007880B1FFE740F2890164
:10228000C2F20001009101204870087003204FF451
:102290007A710EF0F1FE00981B9015E002204FF4C9
:1022A0007A710EF0E9FE40F28900C2F200000121CD
:1022B000417001701B9007E040F28900C2F20000FB
:1022C000002101701B90FFE71B981CB0B0BD0000FF
:1022D00010B5C6B0449043910020ADF80A0141F614
:1022E0007071C2F200010878497888420DD0FFE78A
:1022F00040F2AB01C2F200010020087041F670719B
:10230000C2F2000108784870FFE74398007801287E
:1023100009D1FFE743990220087040F2AB01C2F2F5
:1023200000010870FFE740F2AB00C2F20000007845
:102330000146419158B1FFE74198012800F093838D
:10234000FFE74198022800F0AF8301F070BF40F230
:10235000AB01C2F2000101203D900870449942F6A1
:1023600070423F920020885441F67070C2F2000023
:102370004090D0F81C2140F2AC00C2F200003C902A
:102380004CF6E361C0F601013B9118F095F93C9AD7
:102390003D9BDDF8FCE0DDF810C11CF80E10C820F4
:1023A0003E9011FB00C001310CF80E1000F5AC603E
:1023B0004CF29361C0F6010116F088FB3B993C9802
:1023C000409AD2F8202118F077F93C9A3D9BDDF82D
:1023D000FCE03E98DDF810C11CF80E1011FB00C0A7
:1023E00001310CF80E1000F5AC604CF29571C0F69E
:1023F000010116F06BFB3B993C98409AD2F82421DE
:1024000018F05AF93C9A3D9BDDF8FCE03E98DDF867
:1024100010C11CF80E1011FB00C001310CF80E1099
:1024200000F5AC604CF69701C0F6010116F04EFBCA
:102430003B993C98409AD2F8282118F03DF93C9AF3
:102440003D9BDDF8FCE03E98DDF810C11CF80E1055
:1024500011FB00C001310CF80E1000F5AC604CF619
:102460005111C0F6010116F031FB3B993C98409A9E
:10247000D2F82C2118F020F93C9A3D9BDDF8FCE0C5
:102480003E98DDF810C11CF80E1011FB00C00131A0
:102490000CF80E1000F5AC604CF62221C0F60101DC
:1024A00016F014FB3B993C98449AB2F8062118F0B8
:1024B00003F93C9A3D9BDDF8FCE03E98DDF810C145
:1024C0001CF80E1011FB00C001310CF80E1000F5C5
:1024D000AC604CF6CC21C0F6010116F0F7FA3B993E
:1024E0003C98449AB2F8082118F0E6F83C9A3D9BD3
:1024F000DDF8FCE03E98DDF810C11CF80E1011FB71
:1025000000C001310CF80E1000F5AC604CF67631CD
:10251000C0F6010116F0DAFA3B993C98449AB2F8F9
:102520000A2118F0C9F83C9A3D9BDDF8FCE03E9882
:10253000DDF810C11CF80E1011FB00C001310CF8C1
:102540000E1000F5AC604CF62341C0F6010116F008
:10255000BDFA3B993C98449AB2F80C2118F0ACF8BB
:102560003C9A3D9BDDF8FCE03E98DDF810C11CF87C
:102570000E1011FB00C001310CF80E1000F5AC601C
:102580004CF6B241C0F6010116F0A0FA3B993C9816
:10259000449AB2F80E2118F08FF83C9A3D9BDDF872
:1025A000FCE03E98DDF810C11CF80E1011FB00C0D5
:1025B00001310CF80E1000F5AC604CF2F641C0F69B
:1025C000010116F083FA3B993C98449AB2F8F02046
:1025D00018F072F83C9A3D9BDDF8FCE03E98DDF87F
:1025E00010C11CF80E1011FB00C001310CF80E10C8
:1025F00000F5AC604CF2CB51C0F6010116F066FA62
:102600003B993C98449AB2F8F22018F055F83C9A5D
:102610003D9BDDF8FCE03E98DDF810C11CF80E1083
:1026200011FB00C001310CF80E1000F5AC604CF24B
:10263000CD61C0F6010116F049FA3B993C98449AE5
:10264000B2F8F42018F038F83C9A3D9BDDF8FCE035
:102650003E98DDF810C11CF80E1011FB00C00131CE
:102660000CF80E1000F5AC604CF2CF71C0F6010111
:1026700016F02CFA3B993C98449AB2F8F62018F0E0
:102680001BF83C9A3D9BDDF8FCE03E98DDF810C15C
:102690001CF80E1011FB00C001310CF80E1000F5F3
:1026A000AC604CF6D101C0F6010116F00FFA3B996F
:1026B0003C98449AB2F8F82017F0FEFF3C9A3D9BF4
:1026C000DDF8FCE03E98DDF810C11CF80E1011FB9F
:1026D00000C001310CF80E1000F5AC604CF68B1107
:1026E000C0F6010116F0F2F93B993C98409AD2F8F5
:1026F000302117F0E1FF3C9A3D9BDDF8FCE03E986D
:10270000DDF810C11CF80E1011FB00C001310CF8EF
:102710000E1000F5AC604CF65C21C0F6010116F01D
:10272000D5F93B993C98409AD2F8342117F0C4FF70
:102730003C9A3D9BDDF8FCE03E98DDF810C11CF8AA
:102740000E1011FB00C001310CF80E1000F5AC604A
:102750004CF60631C0F6010116F0B8F93B993C98E9
:10276000409AD2F8382117F0A7FF3C9A3D9BDDF83C
:10277000FCE03E98DDF810C11CF80E1011FB00C003
:1027800001310CF80E1000F5AC604CF6A431C0F627
:10279000010116F09BF93B993C98409AD2F83C21F4
:1027A00017F08AFF3C9A3D9BDDF8FCE03E98DDF88F
:1027B00010C11CF80E1011FB00C001310CF80E10F6
:1027C00000F5AC604CF65141C0F6010116F07EF9FF
:1027D0003B993C98409AD2F8402117F06DFF3C9A03
:1027E0003D9BDDF8FCE03E98DDF810C11CF80E10B2
:1027F00011FB00C001310CF80E1000F5AC604CF27A
:102800005151C0F6010116F061F93B993C98449A88
:10281000B2F8102117F050FF3C9A3D9BDDF8FCE028
:102820003E98DDF810C11CF80E1011FB00C00131FC
:102830000CF80E1000F5AC604CF23561C0F60101E9
:1028400016F044F93B993C98449AB2F8122117F0DB
:1028500033FF3C9A3D9BDDF8FCE03E98DDF810C16B
:102860001CF80E1011FB00C001310CF80E1000F521
:10287000AC604CF23771C0F6010116F027F93B99B4
:102880003C98449AB2F8142117F016FF3C9A3D9BED
:10289000DDF8FCE03E98DDF810C11CF80E1011FBCD
:1028A00000C001310CF80E1000F5AC604CF6390197
:1028B000C0F6010116F00AF93B993C98449AB2F827
:1028C000162117F0F9FE3C9A3D9BDDF8FCE03E989E
:1028D000DDF810C11CF80E1011FB00C001310CF81E
:1028E0000E1000F5AC604CF60211C0F6010116F0B6
:1028F000EDF83B993C98449AB2F8182117F0DCFEA9
:102900003C9A3D9BDDF8FCE03E98DDF810C11CF8D8
:102910000E1011FB00C001310CF80E1000F5AC6078
:102920004CF6CE11C0F6010116F0D0F83B993C9858
:10293000449AB2F8FA2017F0BFFE3C9A3D9BDDF8AE
:10294000FCE03E98DDF810C11CF80E1011FB00C031
:1029500001310CF80E1000F5AC604CF68D21C0F67C
:10296000010116F0B3F83B993C98449AB2F8FC2068
:1029700017F0A2FE3C9A3D9BDDF8FCE03E98DDF8A6
:1029800010C11CF80E1011FB00C001310CF80E1024
:1029900000F5AC604CF63731C0F6010116F096F840
:1029A0003B993C98449AB2F8FE2017F085FE3C9A79
:1029B0003D9BDDF8FCE03E98DDF810C11CF80E10E0
:1029C00011FB00C001310CF80E1000F5AC604CF6A4
:1029D000E431C0F6010116F079F83B993C98449A2D
:1029E000B2F8002117F068FE3C9A3D9BDDF8FCE050
:1029F0003E98DDF810C11CF80E1011FB00C001312B
:102A00000CF80E1000F5AC604CF68241C0F60101E6
:102A100016F05CF83B993C98449AB2F8022117F002
:102A20004BFE3C9A3D9BDDF8FCE03E98DDF810C182
:102A30001CF80E1011FB00C001310CF80E1000F54F
:102A4000AC604CF28251C0F6010116F03FF83F9B9A
:102A50004098449A02F5AC61D25C4FF47A7314F05A
:102A60001DFB01F0E4BB449842F67341405C012831
:102A700018D1FFE7449942F673420020885440F28F
:102A8000AB01C2F200010870449890F878014C281C
:102A900007D1FFE740F2AB01C2F20001022008704B
:102AA000FFE7FFE701F0C3BB41F67071C2F200011E
:102AB00042F67042002088544BF61770C0F60100B1
:102AC0004FF47A7114F014FF0078002863D0FFE708
:102AD00043980078022801D1FFE75BE0449A42F670
:102AE00070433993D15CC820379011FB002001312D
:102AF000D15400F5AC604CF21231C0F601014CF239
:102B0000DD22C0F6010200233A9315F0DFFF37986B
:102B1000399B449AD15C11FB00200131D15400F55E
:102B2000AC604CF6E041C0F601014DF27E02C0F609
:102B300001020123389315F0C9FF3798389BDDF85F
:102B4000E4C0449A12F80C1011FB0020013102F885
:102B50000C1000F5AC604CF6C961C0F601014BF6F3
:102B60005852C0F6010215F0B1FF399941F6707064
:102B7000C2F20000425C00F5AC614FF47A7314F0CD
:102B80008DFA3A9840F2AB01C2F20001087045900C
:102B900001F055BBFFE74CF6DC70C0F601004FF4C6
:102BA0007A7114F0A5FE017840F2AA00C2F200008A
:102BB00001700078D0BBFFE741F67070C2F20000F0
:102BC00043F62621405C4F2830D1FFE741F6707074
:102BD000C2F2000043F62721405C4B2826D1FFE7D4
:102BE00043980078022820D1FFE74DF27710C0F615
:102BF0000100012100224FF47A730EF09BFD007852
:102C000090B1FFE703204FF47A710EF035FA439943
:102C10000020087040F2A800C2F2000001214170BB
:102C20000170459001F00BBBFFE722E0439800786C
:102C300002281DD1FFE74DF27710C0F601000022F7
:102C400036924FF47A73359311460EF073FD359931
:102C50003698439A107002200EF00EFA40F2A80047
:102C6000C2F20000012141700170459001F0E7BA05
:102C7000FFE74CF63D70C0F601004FF47A7114F096
:102C800037FE007840F2AA01C2F20001087041F656
:102C90007070C2F20000349043F6262108440A21E5
:102CA00001F0D0FA014640F2C000C2F2000001601B
:102CB0000068FDF704FB01463498C0F81C11D0F8F9
:102CC0001C014499B1F8061188424FDAFFE741F63A
:102CD0007070C2F20000D0F81C014499B1F8F010F5
:102CE000884243DDFFE7BDF80A0140F00100ADF87E
:102CF0000A01449A42F67043D15CC82011FB0020BF
:102D00000131D15400F5AC604CF25731C0F60101ED
:102D10004CF21402C0F60102002315F0D7FE4398CE
:102D20000078022821D1FFE740F2C000C2F2000083
:102D30000068012100224FF47A730EF0FBFC00784A
:102D400090B1FFE703204FF47A710EF095F94399A3
:102D50000020087040F2A800C2F20000012141707A
:102D60000170459001F06BBAFFE739E0449A42F6F2
:102D70007043D15CC82011FB00200131D15400F513
:102D8000AC604CF25731C0F601014CF2D922C0F6CA
:102D90000102002315F09AFE4398007802281ED104
:102DA000FFE740F2C000C2F2000000680022339248
:102DB0004FF47A73329311460EF0BCFC329933987B
:102DC000439A107002200EF057F940F2A800C2F2A8
:102DD0000000012141700170459001F030BAFFE719
:102DE0004BF6FE70C0F6010041F2883114F080FD10
:102DF00041F20411C2F200010020C860FFE741F671
:102E00007070C2F2000043F62621405C4F2830D19A
:102E1000FFE741F67070C2F2000043F62721405CE4
:102E20004B2826D1FFE743980078022820D1FFE7FE
:102E30004DF27710C0F60100012100224FF47A73A1
:102E40000EF078FC007890B1FFE703204FF47A7120
:102E50000EF012F943990020087040F2A800C2F267
:102E60000000012141700170459001F0E8B9FFE7D1
:102E700048E041F20410C2F20000C06841F289311A
:102E8000884224D3FFE74398007802281ED1FFE749
:102E900040F2C000C2F200000068002231924FF4FC
:102EA0007A73309311460EF045FC30993198439A6D
:102EB000107002200EF0E0F840F2A800C2F200000C
:102EC000012141700170459001F0B9B9FFE746F268
:102ED000D430C2F20000407B012812D1FFE703206A
:102EE0004FF47A710EF0C8F843990020087040F250
:102EF000A800C2F20000012141700170459001F06C
:102F00009EB97CE74CF6E170C0F601004FF47A718F
:102F100014F0EEFC007840F2AA01C2F20001087041
:102F20000A200EF00BFA41F67070C2F2000043F670
:102F30002621405C302826D1FFE7439800780228FC
:102F400020D1FFE74DF27710C0F6010001210022E9
:102F50004FF47A730EF0EEFB007890B1FFE7032098
:102F60004FF47A710EF088F843990020087040F20F
:102F7000A800C2F20000012141700170459001F0EB
:102F80005EB9FFE728E043980078022823D1FFE7E5
:102F900041F67070C2F2000043F6262108440A216F
:102FA00001F050F900222F924FF47A732E931146BC
:102FB0000EF0C0FB2E992F98439A107002200EF04D
:102FC0005BF840F2A800C2F20000012141700170DC
:102FD000459001F034B9FFE74CF6C260C0F601003D
:102FE0004FF47A7114F084FC007840F2AA01C2F226
:102FF0000001087041F67070C2F200002D9043F697
:10300000262108440A2101F01DF9014640F2C000C2
:10301000C2F2000001600068FDF751F901462D98E9
:10302000C0F82011D0F820014499B1F80811884265
:103030004FDAFFE741F67070C2F20000D0F82001CD
:103040004499B1F8F210884243DDFFE7BDF80A0168
:1030500040F00200ADF80A01449A42F67043D15C98
:10306000C82011FB00200131D15400F5AC604CF2B6
:103070009531C0F601014CF21402C0F601020023A2
:1030800015F024FD43980078022821D1FFE740F293
:10309000C000C2F200000068012100224FF47A73E0
:1030A0000EF048FB007890B1FFE703204FF47A71EF
:1030B0000DF0E2FF43990020087040F2A800C2F230
:1030C0000000012141700170459001F0B8B8FFE7A0
:1030D00039E0449A42F67043D15CC82011FB0020CD
:1030E0000131D15400F5AC604CF29531C0F60101CC
:1030F0004CF2D922C0F60102002315F0E7FC4398F8
:10310000007802281ED1FFE740F2C000C2F20000A2
:10311000006800222C924FF47A732B9311460EF024
:1031200009FB2B992C98439A107002200DF0A4FFF4
:1031300040F2A800C2F200000121417001704590E8
:1031400001F07DB8FFE7C8200EF0F8F84CF6F370F8
:10315000C0F601004FF47A7114F0CAFB007840F217
:10316000AA01C2F20001087041F67070C2F20000BC
:103170002A9043F6262108440A2101F063F801460B
:1031800040F2C000C2F2000001600068FDF797F84D
:1031900001462A98C0F82411D0F824014499B1F8C6
:1031A0000A1188424FDAFFE741F67070C2F2000060
:1031B000D0F824014499B1F8F410884243DDFFE7C8
:1031C000BDF80A0140F00400ADF80A01449A42F645
:1031D0007043D15CC82011FB00200131D15400F5AF
:1031E000AC604CF2C531C0F601014CF21402C0F6DD
:1031F0000102002315F06AFC43980078022821D1CF
:10320000FFE740F2C000C2F2000000680121002286
:103210004FF47A730EF08EFA007890B1FFE7032036
:103220004FF47A710DF028FF43990020087040F2A6
:10323000A800C2F20000012141700170459000F029
:10324000FEBFFFE739E0449A42F67043D15CC820E4
:1032500011FB00200131D15400F5AC604CF2C531B6
:10326000C0F601014CF2D922C0F60102002315F08C
:103270002DFC4398007802281ED1FFE740F2C000E1
:10328000C2F200000068002229924FF47A7328935A
:1032900011460EF04FFA28992998439A107002208F
:1032A0000DF0EAFE40F2A800C2F2000001214170D8
:1032B0000170459000F0C3BFFFE7C8200EF03EF854
:1032C0004CF60170C0F601004FF47A7114F010FB57
:1032D000007840F2AA01C2F20001087041F6707055
:1032E000C2F20000279043F6262108440A2100F08C
:1032F000A9FF014640F2C000C2F200000160006870
:10330000FCF7DDFF01462798C0F82811D0F8280106
:103310004499B1F80C1188424FDAFFE741F670701A
:10332000C2F20000D0F828014499B1F8F6108842A2
:1033300043DDFFE7BDF80A0140F00800ADF80A01DF
:10334000449A42F67043D15CC82011FB0020013141
:10335000D15400F5AC604CF2D531C0F601014CF20D
:103360001402C0F60102002315F0B0FB4398007868
:10337000022821D1FFE740F2C000C2F2000000683D
:10338000012100224FF47A730EF0D4F9007890B145
:10339000FFE703204FF47A710DF06EFE4399002091
:1033A000087040F2A800C2F20000012141700170D3
:1033B000459000F044BFFFE78FE0449A42F6704327
:1033C000D15CC82011FB00200131D15400F5AC6064
:1033D0004CF2D531C0F601014CF2D922C0F60102FF
:1033E000002315F073FB43980078022874D1FFE79F
:1033F00040F2C000C2F20000006800221F924FF4A9
:103400007A73259311460EF095F925991F98439AE2
:10341000107002200DF030FE1F9840F2A801C2F299
:1034200000012691012321934B700B7041F67071BE
:10343000C2F20001239142F6704422940855085DBF
:10344000421C0A5501F5AC622492C821209110FB60
:1034500001204CF6C961C0F601014BF65852C0F686
:10346000010215F033FB1F9B2099249ADDF88CE0B4
:103470001EF8040000F1010C0EF804C010FB01203E
:103480004CF21231C0F601014CF23112C0F60102C9
:1034900015F01CFB2099219B249ADDF88CE01EF886
:1034A000040000F1010C0EF804C010FB01204CF6E2
:1034B000E041C0F601014DF2AD02C0F6010215F087
:1034C00005FB229A23982499259B825C13F0E6FD44
:1034D0002698459000F0B3BEFFE764200DF02EFF64
:1034E0004CF63D70C0F601004FF47A7114F000FA0A
:1034F000007840F2AA01C2F20001087041F6707033
:10350000C2F200001E9043F6262108440A2100F072
:1035100099FE014640F2C000C2F20000016000685E
:10352000FCF7CDFE01461E98C0F82C11D0F82C01F6
:103530004499B1F80E1188424FDAFFE741F67070F6
:10354000C2F20000D0F82C014499B1F8F81088427A
:1035500043DDFFE7BDF80A0140F01000ADF80A01B5
:10356000449A42F67043D15CC82011FB002001311F
:10357000D15400F5AC604CF21341C0F601014CF29D
:103580001402C0F60102002315F0A0FA4398007857
:10359000022821D1FFE740F2C000C2F2000000681B
:1035A000012100224FF47A730EF0C4F8007890B134
:1035B000FFE703204FF47A710DF05EFD4399002080
:1035C000087040F2A800C2F20000012141700170B1
:1035D000459000F034BEFFE739E0449A42F670436C
:1035E000D15CC82011FB00200131D15400F5AC6042
:1035F0004CF21341C0F601014CF2D922C0F601028F
:10360000002315F063FA4398007802281ED1FFE7E3
:1036100040F2C000C2F20000006800221D924FF488
:103620007A731C9311460EF085F81C991D98439AE5
:10363000107002200DF020FD40F2A800C2F2000040
:10364000012141700170459000F0F9BDFFE74CF297
:103650004400C0F601004FF47A7114F049F9017882
:1036600040F2AA00C2F200000170007880BBFFE7C0
:1036700041F67070C2F2000043F62621405C4828F3
:1036800026D1FFE743980078022820D1FFE74DF2CA
:103690007710C0F60100012100224FF47A730EF07A
:1036A00049F8007890B1FFE703204FF47A710DF0EC
:1036B000E3FC43990020087040F2A800C2F2000029
:1036C000012141700170459000F0B9BDFFE722E093
:1036D0004398007802281DD1FFE74DF27710C0F61D
:1036E000010000221B924FF47A731A9311460EF0D8
:1036F00021F81A991B98439A107002200DF0BCFC17
:1037000040F2A800C2F20000012141700170459012
:1037100000F095BDFFE74FF4FA700DF00FFE4CF688
:103720003D70C0F601004FF47A7114F0E1F80078B2
:1037300040F2AA01C2F20001087041F67070C2F2B4
:103740000000199043F6262108440A2100F07AFD72
:10375000014640F2C000C2F2000001600068FCF7C0
:10376000AEFD01461998C0F83011D0F830014499E7
:10377000B1F8101188424FDAFFE741F67070C2F2DB
:103780000000D0F830014499B1F8FA10884243DDC6
:10379000FFE7BDF80A0140F02000ADF80A01449AA5
:1037A00042F67043D15CC82011FB00200131D15496
:1037B00000F5AC604CF22341C0F601014CF214025A
:1037C000C0F60102002315F081F943980078022821
:1037D00021D1FFE740F2C000C2F2000000680121E1
:1037E00000224FF47A730DF0A5FF007890B1FFE747
:1037F00003204FF47A710DF03FFC439900200870CC
:1038000040F2A800C2F20000012141700170459011
:1038100000F015BDFFE739E0449A42F67043D15CF1
:10382000C82011FB00200131D15400F5AC604CF2EE
:103830002341C0F601014CF2D922C0F60102002357
:1038400015F044F94398007802281ED1FFE740F2B2
:10385000C000C2F200000068002218924FF47A7390
:10386000179311460DF066FF17991898439A107038
:1038700002200DF001FC40F2A800C2F2000001217C
:1038800041700170459000F0DABCFFE74CF21A007D
:10389000C0F6010041F2883114F02AF8007840F2B5
:1038A000AA01C2F20001087041F20411C2F2000143
:1038B0000020C860FFE741F67070C2F2000043F6D6
:1038C0002621405C4F2830D1FFE741F67070C2F2EC
:1038D000000043F62721405C4B2826D1FFE74398A0
:1038E0000078022820D1FFE74DF27710C0F60100E2
:1038F000012100224FF47A730DF01CFF007890B183
:10390000FFE703204FF47A710DF0B6FB43990020D6
:10391000087040F2A800C2F200000121417001705D
:10392000459000F08CBCFFE74DE041F20410C2F27C
:103930000000C06841F28931884229D3FFE74398EB
:103940000078022823D1FFE741F67070C2F2000030
:1039500043F6262108440A2100F074FC0022169246
:103960004FF47A73159311460DF0E4FE15991698ED
:10397000439A107002200DF07FFB40F2A800C2F2C3
:103980000000012141700170459000F058BCFFE734
:1039900046F2D430C2F20000407B012812D1FFE78A
:1039A00003204FF47A710DF067FB439900200870F3
:1039B00040F2A800C2F20000012141700170459060
:1039C00000F03DBC77E74CF6E170C0F601004FF423
:1039D0007A7113F08DFF007840F2AA01C2F2000163
:1039E00008700A200DF0AAFC41F67070C2F20000C7
:1039F00043F62621405C302825D1FFE74398007824
:103A000002281FD1FFE74DF27710C0F60100012117
:103A100000224FF47A730DF08DFE007888B1FFE735
:103A200003204FF47A710DF027FB439900200870B2
:103A300040F2A800C2F200000121417001704590DF
:103A4000FDE3FFE727E043980078022822D1FFE753
:103A500041F67070C2F2000043F6262108440A21A4
:103A600000F0F0FB002214924FF47A731393114686
:103A70000DF060FE13991498439A107002200DF017
:103A8000FBFA40F2A800C2F200000121417001706F
:103A90004590D4E3FFE74CF6C260C0F601004FF456
:103AA0007A7113F025FF007840F2AA01C2F20001FA
:103AB000087041F67070C2F20000129043F62621A1
:103AC00008440A2100F0BEFB014640F2C000C2F2E9
:103AD000000001600068FCF7F2FB01461298C0F894
:103AE0003411D0F834014499B1F8121188424EDAF9
:103AF000FFE741F67070C2F20000D0F8340144993B
:103B0000B1F8FC10884242DDFFE7BDF80A0140F041
:103B10004000ADF80A01449A42F67043D15CC820D7
:103B200011FB00200131D15400F5AC604CF265412D
:103B3000C0F601014CF21402C0F60102002314F099
:103B4000C5FF43980078022820D1FFE740F2C0006B
:103B5000C2F200000068012100224FF47A730DF0D8
:103B6000E9FD007888B1FFE703204FF47A710DF08A
:103B700083FA43990020087040F2A800C2F20000C6
:103B8000012141700170459059E3FFE738E0449A04
:103B900042F67043D15CC82011FB00200131D154A2
:103BA00000F5AC604CF26541C0F601014CF2D9223F
:103BB000C0F60102002314F089FF43980078022820
:103BC0001DD1FFE740F2C000C2F2000000680022F1
:103BD00011924FF47A73109311460DF0ABFD1099CA
:103BE0001198439A107002200DF046FA40F2A80096
:103BF000C2F2000001214170017045901FE3FFE710
:103C0000C8200DF09BFB4CF6F370C0F601004FF49A
:103C10007A7113F06DFE007840F2AA01C2F2000141
:103C2000087041F67070C2F200000F9043F6262132
:103C300008440A2100F006FB014640F2C000C2F22F
:103C4000000001600068FCF73AFB01460F98C0F8DD
:103C50003811D0F838014499B1F8141188424EDA7D
:103C6000FFE741F67070C2F20000D0F838014499C5
:103C7000B1F8FE10884242DDFFE7BDF80A0140F0CE
:103C80008000ADF80A01449A42F67043D15CC82026
:103C900011FB00200131D15400F5AC604CF2A4417D
:103CA000C0F601014CF21402C0F60102002314F028
:103CB0000DFF43980078022820D1FFE740F2C000B2
:103CC000C2F200000068012100224FF47A730DF067
:103CD00031FD007888B1FFE703204FF47A710DF0D1
:103CE000CBF943990020087040F2A800C2F200000E
:103CF0000121417001704590A1E2FFE738E0449A4C
:103D000042F67043D15CC82011FB00200131D15430
:103D100000F5AC604CF2A441C0F601014CF2D9228E
:103D2000C0F60102002314F0D1FE43980078022867
:103D30001DD1FFE740F2C000C2F20000006800227F
:103D40000E924FF47A730D9311460DF0F3FC0D991A
:103D50000E98439A107002200DF08EF940F2A800E0
:103D6000C2F20000012141700170459067E2FFE757
:103D7000C8200DF0E3FA4CF60170C0F601004FF4D4
:103D80007A7113F0B5FD007840F2AA01C2F2000189
:103D9000087041F67070C2F200000C9043F62621C4
:103DA00008440A2100F04EFA014640F2C000C2F277
:103DB000000001600068FCF782FA01460C98C0F828
:103DC0003C11D0F83C014499B1F8161188424EDA02
:103DD000FFE741F67070C2F20000D0F83C01449950
:103DE000B1F80011884242DDFFE7BDF80A0140F456
:103DF0008070ADF80A01449A42F67043D15CC82045
:103E000011FB00200131D15400F5AC604CF2C541EA
:103E1000C0F601014CF21402C0F60102002314F0B6
:103E200055FE43980078022820D1FFE740F2C000F9
:103E3000C2F200000068012100224FF47A730DF0F5
:103E400079FC007888B1FFE703204FF47A710DF018
:103E500013F943990020087040F2A800C2F2000054
:103E60000121417001704590E9E1FFE78EE0449A3D
:103E700042F67043D15CC82011FB00200131D154BF
:103E800000F5AC604CF2C541C0F601014CF2D922FC
:103E9000C0F60102002314F019FE439800780228AE
:103EA00073D1FFE740F2C000C2F2000000680022B8
:103EB00004924FF47A730A9311460DF03BFC0A9971
:103EC0000498439A107002200DF0D6F8049840F23E
:103ED000A801C2F200010B91012306934B700B70F5
:103EE00041F67071C2F20001089142F670440794E5
:103EF0000855085D421C0A5501F5AC620992C821BB
:103F0000059110FB01204CF6C961C0F601014BF68A
:103F10005852C0F6010214F0D9FD049B0599099A84
:103F2000DDF820E01EF8040000F1010C0EF804C0DA
:103F300010FB01204CF21231C0F601014CF231129B
:103F4000C0F6010214F0C2FD0599069B099ADDF83E
:103F500020E01EF8040000F1010C0EF804C010FB74
:103F600001204CF6E041C0F601014DF2AD02C0F671
:103F7000010214F0ABFD079A089809990A9B825C2C
:103F800013F08CF80B98459059E1FFE764200DF091
:103F9000D5F94CF63D70C0F601004FF47A7113F07C
:103FA000A7FC007840F2AA01C2F20001087041F6B5
:103FB0007070C2F20000039043F6262108440A21E3
:103FC00000F040F9014640F2C000C2F2000001607A
:103FD0000068FCF774F901460398C0F84011D0F866
:103FE00040014499B1F8181188424EDAFFE741F6D2
:103FF0007070C2F20000D0F840014499B1F802118B
:10400000884242DDFFE7BDF80A0140F40070ADF8D8
:104010000A01449A42F67043D15CC82011FB00208B
:104020000131D15400F5AC604CF24631C0F60101CB
:104030004CF21402C0F60102002314F047FD43982D
:104040000078022820D1FFE740F2C000C2F2000051
:104050000068012100224FF47A730DF06BFB0078A9
:1040600088B1FFE703204FF47A710DF005F843990A
:104070000020087040F2A800C2F200000121417047
:1040800001704590DBE0FFE738E0449A42F6704368
:10409000D15CC82011FB00200131D15400F5AC6087
:1040A0004CF24631C0F601014CF2D922C0F60102B1
:1040B000002314F00BFD4398007802281DD1FFE780
:1040C00040F2C000C2F200000068002202924FF4E9
:1040D0007A73019311460DF02DFB01990298439AD2
:1040E000107002200CF0C8FF40F2A800C2F20000DD
:1040F0000121417001704590A1E0FFE743980078ED
:1041000002281BD1FFE7439900200090087041F678
:104110007070C2F2000042F67041425C00F5AC6182
:104120004FF47A7312F0BAFF009940F2A800C2F27D
:104130000000012202704170459080E040F2AB0027
:10414000C2F2000000230370449A42F6704C12F849
:104150000C10C82011FB0020013102F80C1000F5F2
:10416000AC604CF21231C0F601014CF2DD22C0F617
:10417000010214F0ABFCBDF80A016FF39F2040F27E
:10418000FF31884217D1FFE7449A42F67043D15C71
:10419000C82011FB00200131D15400F5AC604CF671
:1041A000E041C0F601014CF6B852C0F6010201230D
:1041B00014F08CFC16E0449A42F67043D15CC8209F
:1041C00011FB00200131D15400F5AC604CF6E04108
:1041D000C0F601014CF67C62C0F60102012314F026
:1041E00075FCFFE7449A42F67043D15CC82011FB8E
:1041F00000200131D15400F5AC604CF6C961C0F625
:1042000001014BF65852C0F60102012314F05EFC86
:10421000FFE741F67070C2F2000042F67041425C66
:1042200000F5AC614FF47A7312F038FFFFE740F20B
:10423000A800C2F20000002101704590FFE74598F8
:1042400046B010BD84B003908DF80B100020019093
:104250000090FFE703980199405CE0B1FFE7039805
:104260000199405C9DF80B1088420FD0FFE703983E
:104270000199405C009A511C009140F2C401C2F2C5
:1042800000018854009A00208854FFE7FFE7019856
:1042900001300190DEE740F2C400C2F2000004B039
:1042A0007047000080B546F65000C2F2000001F0F1
:1042B00013FE80BD80B546F6D010C2F2000001F0BA
:1042C0000BFE80BD80B546F63020C2F2000001F042
:1042D00003FE80BD80B546F6B000C2F2000001F0DA
:1042E000FBFD80BD80B546F69020C2F2000001F0D3
:1042F000F3FD80BD80B546F61010C2F2000001F05B
:10430000EBFD80BD80B546F67010C2F2000001F0F2
:10431000E3FD80BD80B546F6F020C2F2000001F05A
:10432000DBFD80BD82B001900198007810384AF61C
:10433000AB21CAF6AA21A0FB011000090090009948
:104340004BF27450C0F60100405C0199C8650098BA
:10435000042807D3FFE701990868042262F30900E3
:10436000886506E00199086840F2FF32904388654D
:10437000FFE70198806D02B07047000086B005909D
:1043800000208DF813000598806A039005988069D5
:1043900010BBFFE70398029003281BD80299DFE8BF
:1043A00001F0020D0218059890F82F00C00720B107
:1043B000FFE701208DF81300FFE70CE00598C06AC5
:1043C000B0F1C07F04D1FFE701208DF81300FFE7B3
:1043D00001E000E0FFE745E005988069B0F5005F87
:1043E00025D1FFE70398019003281ED80199DFE843
:1043F00001F00206021101208DF8130016E0059865
:1044000090F82F00C00720B1FFE701208DF81300BE
:10441000FFE70BE00598C06AB0F1C07F04D1FFE769
:1044200001208DF81300FFE700E0FFE719E0039893
:104430000090032804D3FFE70098032804D00EE07F
:1044400001208DF813000BE0059890F82F00C007AD
:1044500020B1FFE701208DF81300FFE700E0FFE740
:10446000FFE7FFE79DF8130006B0704784B00390A4
:1044700002910192009303980168086820F480205B
:10448000086000980399096848600398806840288C
:1044900009D1FFE701980399096888600298039998
:1044A0000968C86008E00298039909688860019863
:1044B00003990968C860FFE704B0704780B5DAB0B7
:1044C00059900DF599703221FBF7C4FE00208DF84C
:1044D0003101599800784938014649912B2801F259
:1044E0008E814999DFE811F0C1068B098B096907B4
:1044F0008B098B098B098B098B098B098B098B091C
:104500008B098B098B098B098B098B098B098B090B
:104510008B098B098B098B092C0067020E04C405DB
:104520008B098B098B098B098B098B098B098B09EB
:104530008B098B098B099F008B098B098B093E0620
:1045400046F2D431C2F20001012088715998807876
:104550006F281ED1FFE75998C078752819D1FFE759
:1045600059980079742814D1FFE759980DF599717D
:10457000489111F00FF94898002116F0B5F851EC68
:10458000100BFBF7DBFE41F67071C2F200014860D0
:1045900047E0599880786D281ED1FFE75998C07878
:1045A000612819D1FFE759980079782814D1FFE7DD
:1045B00059980DF59971479111F0ECF84798002141
:1045C00016F092F851EC100BFBF7B8FE41F6707143
:1045D000C2F20001886023E0599880786D281ED1CE
:1045E000FFE75998C078692819D1FFE759980079F1
:1045F0006E2814D1FFE759980DF59971469111F085
:10460000C9F84698002116F06FF851EC100BFBF733
:1046100095FE41F67071C2F20001C860FFE7FFE746
:10462000FFE701F0ECB859984BF60171C0F60101B3
:10463000FBF72EFE70BBFFE746F2D430C2F200005B
:10464000807C30B3FFE746F2D431C2F20001002093
:10465000C87241F67071C2F2000108706846FF230B
:10466000036040F2BC10C2F2000045904BF6996125
:10467000C0F601011A4616F01FF845998DF8310170
:104680009DF8312146F64850C2F2000006F074FE53
:10469000FFE78EE159984BF67651C0F60101FBF722
:1046A000F7FD78BBFFE746F2D430C2F20000807C11
:1046B00038B3FFE746F2D431C2F200010020C872DD
:1046C00041F67071C2F20001012008706846FF23B4
:1046D000036040F2BC10C2F2000044904BF6AF51B0
:1046E000C0F601011A4615F0E7FF44998DF8310133
:1046F0009DF8312146F64850C2F2000006F03CFE1B
:10470000FFE755E159984BF66C51C0F60101FBF7F4
:10471000BFFD78BBFFE746F2D430C2F20000807CD8
:1047200038B3FFE746F2D431C2F200010020C8726C
:1047300041F67071C2F20001022008706846FF2342
:10474000036040F2BC10C2F2000043904BF6CF5120
:10475000C0F601011A4615F0AFFF43998DF83101FB
:104760009DF8312146F64850C2F2000006F004FEE2
:10477000FFE71CE159984BF66251C0F60101FBF7C7
:1047800087FD78BBFFE746F2D430C2F20000807CA0
:1047900038B3FFE746F2D431C2F200010020C872FC
:1047A00041F67071C2F20001032008706846FF23D1
:1047B000036040F2BC10C2F2000042904BF6BF51C1
:1047C000C0F601011A4615F077FF42998DF83101C4
:1047D0009DF8312146F64850C2F2000006F0CCFDAB
:1047E000FFE7E3E059984BF6EA61C0F60101FBF7F9
:1047F0004FFD78BBFFE746F2D430C2F20000807C68
:1048000038B3FFE746F2D431C2F200010020C8728B
:1048100041F67071C2F20001042008706846FF235F
:10482000036040F2BC10C2F2000041904BF676618A
:10483000C0F601011A4615F03FFF41998DF831018C
:104840009DF8312146F64850C2F2000006F094FD72
:10485000FFE7AAE059984BF68851C0F60101FBF733
:1048600017FD78BBFFE746F2D430C2F20000807C2F
:1048700038B3FFE746F2D431C2F200010020C8721B
:1048800041F67071C2F20001052008706846FF23EE
:10489000036040F2BC10C2F2000040904BF6DF51C2
:1048A000C0F601011A4615F007FF40998DF8310155
:1048B0009DF8312146F64850C2F2000006F05CFD3A
:1048C000FFE771E059984BF60B71C0F60101FBF759
:1048D000DFFC78BBFFE746F2D430C2F20000807CF8
:1048E00038B3FFE746F2D431C2F200010020C872AB
:1048F00041F67071C2F20001062008706846FF237D
:10490000036040F2BC10C2F200003F904BF6A96178
:10491000C0F601011A4615F0CFFE3F998DF831011E
:104920009DF8312146F64850C2F2000006F024FD01
:10493000FFE738E059984BF6F761C0F60101FBF745
:10494000A7FC78BBFFE746F2D430C2F20000807CBF
:1049500038B3FFE746F2D431C2F200010020C8723A
:1049600041F67071C2F20001072008706846FF230B
:10497000036040F2BC10C2F200003E904BF6896129
:10498000C0F601011A4615F097FE3E998DF83101E7
:104990009DF8312146F64850C2F2000006F0ECFCCA
:1049A000FFE7FFE7FFE7FFE7FFE7FFE7FFE7FFE7D7
:1049B000FFE700F024BF46F2D431C2F2000101202B
:1049C000887159988078612814D1FFE759980DF5BE
:1049D00099713D9110F0DEFE3D98002115F084FEA6
:1049E00051EC100BFBF7AAFC41F67071C2F200010A
:1049F000086585E159988078622814D1FFE75998B5
:104A00000DF599713C9110F0C5FE3C98002115F010
:104A10006BFE51EC100BFBF791FC41F67071C2F28A
:104A2000000108636BE159988078632814D1FFE78F
:104A300059980DF599713B9110F0ACFE3B9800210F
:104A400015F052FE51EC100BFBF778FC41F670713B
:104A5000C2F20001486551E159988078642814D168
:104A6000FFE759980DF599713A9110F093FE3A9835
:104A7000002115F039FE51EC100BFBF75FFC41F6FD
:104A80007071C2F20001486337E159988078652857
:104A900014D1FFE759980DF59971399110F07AFE0C
:104AA0003998002115F020FE51EC100BFBF746FC65
:104AB00041F67071C2F2000188651DE15998807855
:104AC000662814D1FFE759980DF59971389110F0C7
:104AD00061FE3898002115F007FE51EC100BFBF732
:104AE0002DFC41F67071C2F20001886303E1599810
:104AF0008078672814D1FFE759980DF5997137919F
:104B000010F048FE3798002115F0EEFD51EC100B27
:104B1000FBF714FC41F67071C2F20001C865E9E0D0
:104B200059988078682814D1FFE759980DF5997144
:104B3000369110F02FFE3698002115F0D5FD51EC7E
:104B4000100BFBF7FBFB41F67071C2F20001C8636A
:104B5000CFE059988078692814D1FFE759980DF56E
:104B60009971359110F016FE3598002115F0BCFDB5
:104B700051EC100BFBF7E2FB41F67071C2F2000141
:104B80000866B5E0599880787A2814D1FFE75998DB
:104B90000DF59971349110F0FDFD3498002115F058
:104BA000A3FD51EC100BFBF7C9FB41F67071C2F28B
:104BB000000108649BE0599880786B2814D1FFE7C6
:104BC00059980DF59971339110F0E4FD3398002157
:104BD00015F08AFD51EC100BFBF7B0FB41F670713C
:104BE000C2F20001486681E0599880786C2814D19F
:104BF000FFE759980DF59971329110F0CBFD32987D
:104C0000002115F071FD51EC100BFBF797FB41F6FD
:104C10007071C2F20001486467E0599880786D288D
:104C200014D1FFE759980DF59971319110F0B2FD4B
:104C30003198002115F058FD51EC100BFBF77EFB6D
:104C400041F67071C2F2000188664DE05998807893
:104C50006E2814D1FFE759980DF59971309110F035
:104C600099FD3098002115F03FFD51EC100BFBF73A
:104C700065FB41F67071C2F20001886433E0599817
:104C800080786F2814D1FFE759980DF599712F910D
:104C900010F080FD2F98002115F026FD51EC100B2F
:104CA000FBF74CFB41F67071C2F20001C86619E0D7
:104CB00059988078702814D1FFE759980DF59971AB
:104CC0002E9110F067FD2E98002115F00DFD51EC8E
:104CD000100BFBF733FB41F67071C2F20001C864A0
:104CE000FFE7FFE7FFE7FFE7FFE7FFE7FFE7FFE794
:104CF000FFE7FFE7FFE7FFE7FFE7FFE7FFE7FFE784
:104D000000F07DBD46F2D431C2F20001012088716D
:104D100059988078612815D1FFE759980DF5997158
:104D20002D9110F037FD2D98002115F0DDFC51EC90
:104D3000100BFBF703FB41F67071C2F20001C1F8E2
:104D4000D00094E159988078622815D1FFE75998EE
:104D50000DF599712C9110F01DFD2C98002115F086
:104D6000C3FC51EC100BFBF7E9FA41F67071C2F28B
:104D70000001C1F8B00079E159988078632815D115
:104D8000FFE759980DF599712B9110F003FD2B98C1
:104D9000002115F0A9FC51EC100BFBF7CFFA41F6FE
:104DA0007071C2F20001C1F8D4005EE159988078B8
:104DB000642815D1FFE759980DF599712A9110F0E3
:104DC000E9FC2A98002115F08FFC51EC100BFBF741
:104DD000B5FA41F67071C2F20001C1F8B40043E1C6
:104DE00059988078652815D1FFE759980DF5997184
:104DF000299110F0CFFC2998002115F075FC51EC99
:104E0000100BFBF79BFA41F67071C2F20001C1F87A
:104E1000D80028E159988078662815D1FFE759987D
:104E20000DF59971289110F0B5FC2898002115F026
:104E30005BFC51EC100BFBF781FA41F67071C2F28A
:104E40000001C1F8B8000DE159988078672815D1A4
:104E5000FFE759980DF59971279110F09BFC279861
:104E6000002115F041FC51EC100BFBF767FA41F6FD
:104E70007071C2F20001C1F8DC00F2E0599880784C
:104E8000682815D1FFE759980DF59971269110F012
:104E900081FC2698002115F027FC51EC100BFBF744
:104EA0004DFA41F67071C2F20001C1F8BC00D7E0C2
:104EB00059988078692815D1FFE759980DF59971AF
:104EC000259110F067FC2598002115F00DFC51ECA0
:104ED000100BFBF733FA41F67071C2F20001C1F812
:104EE000E000BCE0599880787A2815D1FFE75998FE
:104EF0000DF59971249110F04DFC2498002115F0C6
:104F0000F3FB51EC100BFBF719FA41F67071C2F28A
:104F10000001C1F8C000A1E0599880786B2815D134
:104F2000FFE759980DF59971239110F033FC239800
:104F3000002115F0D9FB51EC100BFBF7FFF941F6FE
:104F40007071C2F20001C1F8E40086E059988078DF
:104F50006C2815D1FFE759980DF59971229110F041
:104F600019FC2298002115F0BFFB51EC100BFBF748
:104F7000E5F941F67071C2F20001C1F8C4006BE0BE
:104F8000599880786D2815D1FFE759980DF59971DA
:104F9000219110F0FFFB2198002115F0A5FB51ECA9
:104FA000100BFBF7CBF941F67071C2F20001C1F8AA
:104FB000E80050E0599880786E2815D1FFE759989D
:104FC0000DF59971209110F0E5FB2098002115F066
:104FD0008BFB51EC100BFBF7B1F941F67071C2F28B
:104FE0000001C1F8C80035E0599880786F2815D1C4
:104FF000FFE759980DF599711F9110F0CBFB1F98A1
:10500000002115F071FB51EC100BFBF797F941F6FD
:105010007071C2F20001C1F8EC001AE05998807872
:10502000702815D1FFE759980DF599711E9110F070
:10503000B1FB1E98002115F057FB51EC100BFBF74C
:105040007DF941F67071C2F20001C1F8CC00FFE7B2
:10505000FFE7FFE7FFE7FFE7FFE7FFE7FFE7FFE720
:10506000FFE7FFE7FFE7FFE7FFE7FFE7FFE7C6E34D
:105070005998807853282ED1FFE7599800796128F4
:1050800029D1FFE746F2D430C2F20000807C38B16B
:10509000FFE746F2D431C2F2000101200873FFE7B6
:1050A0006846FF23036040F2BC10C2F200001D906E
:1050B0004BF69251C0F601011A4615F0FDFA1D9902
:1050C0008DF831019DF8312146F64850C2F20000BA
:1050D00006F052F945E059988078532826D1FFE729
:1050E000599800796F2821D1FFE746F2D431C2F2F6
:1050F0000001012048736846FF23036040F2BC10A2
:10510000C2F200001C904BF69251C0F601011A4603
:1051100015F0D2FA1C998DF831019DF8312146F62F
:105120004850C2F2000006F027F919E0599880783B
:10513000522807D1FFE746F2D431C2F20001012024
:1051400088730CE059988078632807D1FFE746F20E
:10515000D431C2F2000101200874FFE7FFE7FFE746
:10516000FFE74CE35998007959280FD1FFE7599888
:105170000DF599711B9110F00DFB1B98FBF79FF833
:1051800046F2D431C2F2000188826DE0599800796C
:105190004D2829D1FFE7599840796F280FD1FFE7B3
:1051A00059980DF599711A9110F0F4FA1A98FBF7C5
:1051B00086F846F2D431C2F20001C882FFE759985E
:1051C000407969280FD1FFE759980DF59971199128
:1051D00010F0E0FA1998FBF772F846F2D431C2F2F7
:1051E00000018883FFE73EE05998007944280FD1F9
:1051F000FFE759980DF59971189110F0CBFA1898AE
:10520000FBF75DF846F2D431C2F20001088329E0D1
:105210005998007948280FD1FFE759980DF59971F1
:10522000179110F0B7FA1798FBF749F846F2D43106
:10523000C2F20001488314E05998007953280FD135
:10524000FFE759980DF59971169110F0A3FA169889
:10525000FBF735F846F2D431C2F20001C883FFE70C
:10526000FFE7FFE7FFE7FFE7C9E2599880783128B9
:1052700024D1FFE704208DF8300100208DF82F01A4
:10528000FFE79DF830011D2817DCFFE759989DF8CE
:105290003011405C9DF82F21511C8DF82F1146F2E2
:1052A000D431C2F20001114481F82300FFE79DF8D8
:1052B000300101308DF83001E3E77DE059988078C6
:1052C000322824D1FFE704208DF82E0100208DF82C
:1052D0002D01FFE79DF82E011D2817DCFFE75998E7
:1052E0009DF82E11405C9DF82D21511C8DF82D113B
:1052F00046F2D431C2F20001114481F85500FFE7B3
:105300009DF82E0101308DF82E01E3E753E0599806
:105310008078332824D1FFE704208DF82C01002069
:105320008DF82B01FFE79DF82C011D2817DCFFE706
:1053300059989DF82C11405C9DF82B21511C8DF83B
:105340002B1146F2D431C2F20001114481F88700DA
:10535000FFE79DF82C0101308DF82C01E3E729E0EF
:1053600059988078342824D1FFE704208DF82A0149
:1053700000208DF82901FFE79DF82A011D2817DC80
:10538000FFE759989DF82A11405C9DF82921511C8E
:105390008DF8291146F2D431C2F20001114481F88E
:1053A000B900FFE79DF82A0101308DF82A01E3E7F3
:1053B000FFE7FFE7FFE7FFE721E246F2D431C2F261
:1053C00000010120887159988078612815D1FFE784
:1053D00059980DF59971159110F0DCF91598002187
:1053E00015F082F951EC100BFAF776FF41F6707167
:1053F000C2F20001A1F8060100E259988078622803
:1054000015D1FFE759980DF59971149110F0C2F973
:105410001498002115F068F951EC100BFAF75CFFB5
:1054200041F67071C2F20001A1F80801E5E1599856
:105430008078632815D1FFE759980DF5997113917C
:1054400010F0A8F91398002115F04EF951EC100B4B
:10545000FAF742FF41F67071C2F20001A1F80A01A9
:10546000CAE159988078642815D1FFE759980DF55D
:105470009971129110F08EF91298002115F034F9FB
:1054800051EC100BFAF728FF41F67071C2F20001DF
:10549000A1F80C01AFE159988078652815D1FFE794
:1054A00059980DF59971119110F074F91198002126
:1054B00015F01AF951EC100BFAF70EFF41F6707166
:1054C000C2F20001A1F80E0194E159988078662893
:1054D00015D1FFE759980DF59971109110F05AF90F
:1054E0001098002115F000F951EC100BFAF7F4FEBA
:1054F00041F67071C2F20001A1F8F00079E159980B
:105500008078672815D1FFE759980DF599710F91AB
:1055100010F040F90F98002115F0E6F851EC100B4F
:10552000FAF7DAFE41F67071C2F20001A1F8F2005A
:105530005EE159988078682815D1FFE759980DF5F4
:1055400099710E9110F026F90E98002115F0CCF803
:1055500051EC100BFAF7C0FE41F67071C2F2000177
:10556000A1F8F40043E159988078692815D1FFE744
:1055700059980DF599710D9110F00CF90D980021C5
:1055800015F0B2F851EC100BFAF7A6FE41F6707167
:10559000C2F20001A1F8F60028E1599880787A2833
:1055A00015D1FFE759980DF599710C9110F0F2F8AB
:1055B0000C98002115F098F851EC100BFAF78CFEBE
:1055C00041F67071C2F20001A1F8F8000DE159989E
:1055D00080786B2815D1FFE759980DF599710B91DB
:1055E00010F0D8F80B98002115F07EF851EC100B54
:1055F000FAF772FE41F67071C2F20001A1F81001D3
:10560000F2E0599880786C2815D1FFE759980DF58C
:1056100099710A9110F0BEF80A98002115F064F80B
:1056200051EC100BFAF758FE41F67071C2F200010E
:10563000A1F81201D7E0599880786D2815D1FFE7BD
:1056400059980DF59971099110F0A4F80998002165
:1056500015F04AF851EC100BFAF73EFE41F6707166
:10566000C2F20001A1F81401BCE0599880786E28BC
:1056700015D1FFE759980DF59971089110F08AF846
:105680000898002115F030F851EC100BFAF724FEC1
:1056900041F67071C2F20001A1F81601A1E059981B
:1056A00080786F2815D1FFE759980DF5997107910A
:1056B00010F070F80798002115F016F851EC100B57
:1056C000FAF70AFE41F67071C2F20001A1F8180162
:1056D00086E059988078702815D1FFE759980DF524
:1056E0009971069110F056F80698002114F0FCFF0D
:1056F00051EC100BFAF7F0FD41F67071C2F20001A7
:10570000A1F8FA006BE059988078712815D1FFE76D
:1057100059980DF59971059110F03CF80598002104
:1057200014F0E2FF51EC100BFAF7D6FD41F6707160
:10573000C2F20001A1F8FC0050E05998807872286C
:1057400015D1FFE759980DF59971049110F022F8E1
:105750000498002114F0C8FF51EC100BFAF7BCFDBF
:1057600041F67071C2F20001A1F8FE0035E05998CF
:105770008078732815D1FFE759980DF59971039139
:1057800010F008F80398002114F0AEFF51EC100B54
:10579000FAF7A2FD41F67071C2F20001A1F8000112
:1057A0001AE059988078742815D1FFE759980DF5BB
:1057B000997102910FF0EEFF0298002114F094FF0E
:1057C00051EC100BFAF788FD41F67071C2F200013E
:1057D000A1F80201FFE7FFE7FFE7FFE7FFE7FFE7C9
:1057E000FFE7FFE7FFE7FFE7FFE7FFE7FFE7FFE789
:1057F000FFE7FFE7FFE7FFE7FFE7FFE7FFE75AB055
:1058000080BD00007047000081B0EFF3108072B6D9
:105810000090FFE7FEE7000080B582B041F6180176
:10582000C4F202014FF0806008604CF6F360C0F6ED
:1058300001004FF47A7112F05BF841F67070C2F219
:10584000000043F62621405C302807D1FFE746F2EE
:10585000D431C2F200010120887206E046F2D43150
:10586000C2F2000100208872FFE741F61801C4F27D
:1058700002014FF4806008604CF6F360C0F601004E
:105880004FF47A7112F034F841F67070C2F20000F1
:1058900043F62621405C312807D1FFE746F2D43198
:1058A000C2F200010120887206E046F2D431C2F251
:1058B000000100208872FFE746F2D430C2F20000F7
:1058C000807AE0B1FFE74DF27710C0F601000121C8
:1058D00000224FF47A730BF02DFF007870B1FFE7D0
:1058E00003204FF47A710BF0C7FB40F2EE10C2F2C6
:1058F0000000012141700170019022E017E04DF29B
:105900007710C0F6010000224FF47A73009311461D
:105910000BF010FF009902200BF0AEFB40F2EE10EE
:10592000C2F20000012141700170019009E040F2D3
:10593000EE10C2F2000000214170012101700190BF
:10594000FFE7019802B080BD80B582B00190009160
:1059500001980099002200F003F802B080BD000019
:1059600084B0039002918DF8072001208DF8060085
:1059700000208DF8050046F21070C2F20000407A57
:10598000002827DCFFE746F21073C2F20003009301
:10599000597A0020585403995A7A03EB82025160D5
:1059A0009DF807105A7A1A441172597A4A1C5A7291
:1059B0008DF805109DF805103031029A1170029A89
:1059C0003A215170029A2F2191700299C8708DF876
:1059D0000600FFE79DF8060004B0704780B5ADF5FE
:1059E0005C7D8DF86B03ADF868134BF24C11C0F67B
:1059F0000101A8A8C8220292FAF713FC029A4BF2FE
:105A00001421C0F6010176A8FAF70BFC029A4BF2BA
:105A1000DC21C0F6010144A8FAF703FC029A4BF21C
:105A20008401C0F6010112A8FAF7FBFB0DF1160084
:105A30003221FAF70FFC00208DF815009DF86B035A
:105A400030B9FFE776A8049001208DF8150017E023
:105A50009DF86B03012806D1FFE7A8A80490002059
:105A60008DF815000BE09DF86B03022806D1FFE7C7
:105A700044A8049002208DF81500FFE7FFE7FFE738
:105A80009DF8150012AA322110FB012269460A2056
:105A900008604BF6CC61C0F601010DF116000D2334
:105AA00014F00AFE00208DF80F008DF80E00FFE7BD
:105AB0009DF80F00032800F3D880FFE741F67070CF
:105AC000C2F2000043F68C210144002081F8DE0779
:105AD00081F8DF0781F8E00741F20411C2F200010A
